:020000040800F2
:10000000702000200D0800081106000813060008E3
:10001000170600081B0600081F0600080000000065
:10002000000000000000000000000000230600089F
:100030002506000800000000270600082906000821
:1000400027080008270800082708000827080008D4
:1000500027080008270800082708000827080008C4
:1000600027080008270800082708000827080008B4
:1000700027080008270800082708000827080008A4
:100080002708000827080008270800082708000894
:100090002708000827080008270800082708000884
:1000A0002708000827080008270800082708000874
:1000B0002708000827080008270800082708000864
:1000C0002708000827080008270800082708000854
:1000D000270800086528000827080008D92E00080E
:1000E0002708000827080008270800082708000834
:1000F0002708000827080008270800082708000824
:100100002708000827080008270800082708000813
:10011000270800082708000853320008692D000846
:1001200027080008270800082708000827080008F3
:1001300000F002F800F094F80AA090E8000C824465
:100140008344AAF10107DA4501D100F089F8AFF242
:10015000090EBAE80F0013F0010F18BFFB1A43F0A5
:10016000010318476C9900008C990000103A24BFD5
:1001700078C878C1FAD8520724BF30C830C144BF0C
:1001800004680C607047000000230024002500264E
:10019000103A28BF78C1FBD8520728BF30C148BFEA
:1001A0000B6070476E2906F0A684702906F04D8119
:1001B000662909F08B83652909F08883672909F08E
:1001C0008583612909F0848303681B0A28BF41F0F5
:1001D0008001692906F0BE80642906F0BB8075297C
:1001E00006F0B8806F2906F0AB87782906F01981F0
:1001F000E92906F04587E42906F04287F52906F04B
:100200003F87EF2906F0A887F82906F018810368D0
:10021000DB0928BF41F08001632906F0B486732909
:1002200006F0B986E32907F0B584F32907F0BA840C
:10023000002070471FB59DE8030006F0BBFB07F0E8
:1002400071FA04000020002108F0D4FE401C606018
:100250000020002108F0E4FEE0601FBD10B510BDD5
:1002600007F0F8FE1146FFF7E5FF00F009F808F087
:1002700047F903B4FFF7F2FF03BC02F099FA00005C
:100280008AB00121202001F0B3F810208DF827005A
:1002900003208DF826000420ADF8240009A9BE48EB
:1002A00000F0CAFD0421BC4800F073FE02F0D1FE4C
:1002B00002F014FA02F0DCFE02F023FF4FF4A0601B
:1002C00000F0C4FA4FF4E13002F080FA4FF4E1306C
:1002D00002F0A2FD40F2E241042002F0EDFF4721CE
:1002E00041F2873002F062FD472140F2CF7002F008
:1002F00083FFAAA005F0BCFF02F06CFB4BE10421D8
:10030000A54800F046FE4FF47A7002F024FA4FF44C
:100310007A7002F020FA04219F4800F03CFE4FF46E
:100320007A7002F018FA4FF47A7002F014FAA048CA
:10033000008800F40040002878D09D480088C0F371
:100340000D070897089805F0C1FE0646002404E052
:100350009848005D3055601C84B2BC42F8DB002038
:10036000934908808046069081460590002418E055
:10037000305D7B2803D101200690A14609E0305D65
:100380007D2806D10020069008F101001FFA80F8B0
:100390000594069818B108F101001FFA80F8601C56
:1003A00084B2BC42E4DBCDF81C80079805F08EFED9
:1003B0008246002006900BE016F809200698411CA2
:1003C000C9B206910AF8002009F101001FFA80F96C
:1003D00005988145F0DD504602F084FF03F065FA90
:1003E00075480078002832D174A005F041FF4FF421
:1003F0007A7002F0B0F94FF47A7002F0ACF94FF471
:100400007A7002F0A8F902F034FB00250AE04FF4FC
:10041000FA716EA002F081FB4FF4FA7002F09BF9C2
:10042000681CC5B2052DF2DB00250BE0ACE04FF4F3
:10043000FA716AA002F071FB4FF4FA7002F08BF9C6
:10044000681CC5B2052DF2DB02F027FB95E00FF228
:10045000981B67A00490002508E09BF80020284620
:10046000691C8DB264490A540BF1010B9BF8000022
:100470000028F2D100BF17E0604931F81010302297
:1004800002EB1121CBB229466A1C95B25A4A535449
:100490005A4911F810103031CBB229466A1C95B276
:1004A000554A5354411C88B2B0F5967FE4DB5D2277
:1004B0002846691C8DB250490A542C222846691CD2
:1004C0008DB24D490A5409E0049802782946681C07
:1004D00085B2494842540498401C0490049800781E
:1004E0000028F1D14648027846A102A805F0CCFECA
:1004F000002008E002A90B5C29466A1C95B23E4A1E
:100500005354411CC8B20828F4DB4FF47A7002F04F
:1005100022F94FF47A7002F01EF902F0AAFA0020D4
:1005200001900AE03221344802F0F7FA0A2002F082
:1005300012F90198401CC0B2019001980528F1DB26
:10054000642002F008F9002001900CE04FF4FA71E9
:1005500022A002F0E2FA4FF4FA7002F0FCF80198DF
:10056000401CC0B2019001980528EFDB4FF47A706F
:1005700002F0F1F802F091FA00BF504605F0D5FD07
:10058000304605F0D2FD00BF1FA005F071FE4FF40C
:100590007A7002F0E0F8B2E600140140BFAACABCCB
:1005A00065737038323636B3F5CABCBBAF21000074
:1005B000360000204E0F002001000020BDE2CEF6E4
:1005C000B3F6B4ED2121210A00000000BDE2CEF611
:1005D000CAFDBEDDB3F6B4ED2E00000063616C6CA5
:1005E00066696E69736800006164633A5B000000CD
:1005F000636865636B3A0000100C00202808002037
:100600000000002025580000D4CBD0D0D6D00A005E
:10061000704700BFFEE700BFFEE700BFFEE700BF78
:10062000FEE7704770477047704700000CB5002028
:10063000019000906C48006840F480306A4908607E
:1006400000BF6948006800F4003000900198401C29
:100650000190009818B90198B0F5A06FF1D16248E7
:10066000006800F4003010B10120009001E000208B
:1006700000900098012843D15C48006840F01000C9
:100680005A4908600846006820F0030008600846E0
:10069000006840F0020008605348406852494860D2
:1006A0000846406848600846406840F480604860FA
:1006B0000846406820F47C1048600846406840F4D2
:1006C000E81048600846006840F08070086000BF8D
:1006D0004548006800F000700028F9D042484068A2
:1006E00020F00300404948600846406840F002009E
:1006F000486000BF3C48406800F00C000828F9D171
:100700000CBD10B5FFF792FF10BD10B5364800685C
:1007100040F0010034490860084640683449084008
:100720003149486008460068324908402E4908604F
:100730000846006820F4802008600846406820F4DD
:10074000FE0048604FF41F008860FFF7DAFF4FF0AB
:1007500000602949086010BD10B50021002000226A
:10076000214B5B6803F00C0121B1042906D0082954
:1007700028D107E0214B224C236027E01F4B204C5F
:10078000236023E0184B5B6803F47010164B5B6822
:1007900003F48032022303EB904022B9194B434308
:1007A000174C23600DE0104B5B6803F4003323B15A
:1007B000144B4343124C236003E0104B4343104C53
:1007C000236003E00D4B0E4C236000BF00BF064BBF
:1007D0005B68C3F303130C4CE15C094B1B68CB4013
:1007E000074C236010BD00000010024000200240B2
:1007F0000000FFF8FFFFF6FE08ED00E000127A00AF
:100800000400002000093D0008000020094880473E
:1008100009480047FEE7FEE7FEE7FEE7FEE7FEE7E2
:10082000FEE7FEE7FEE7FEE704480549054A064BFA
:10083000704700000B070008310100087014002009
:1008400070200020701C0020701C002031490143E2
:10085000314A1160704770B5002100230F22C4781F
:1008600004B32D4C246804F4E064C4F5E064210A68
:10087000C1F10403CA40447804FA03F184781440B7
:1008800021430901254C0678A155047804F01F0581
:100890000124AC4005786D11AD0005F1E025C5F8E7
:1008A000004109E0047804F01F050124AC401C4D10
:1008B0000678761145F8264070BD1A4A0A40024370
:1008C000154B1B1F1A60704739B1134A121D12686D
:1008D0000243114B1B1D1A6006E00F4A121D1268DD
:1008E00082430D4B1B1D1A607047042808D14FF03E
:1008F000E021096941F004014FF0E022116107E0B5
:100900004FF0E021096921F004014FF0E02211616C
:10091000704700000000FA050CED00E000E400E084
:1009200080E100E080FFFF1F10B50446FA488442D2
:1009300008D10121401500F075FD0021601500F07F
:1009400071FD17E0F548844208D10121001500F03F
:1009500069FD0021201500F065FD0BE0F0488442A0
:1009600008D10121C80300F05DFD00214FF40040D3
:1009700000F058FD10BD30B502460020002350683D
:10098000E84C20400D790C6844EA0524204350606F
:100990009068E54C2040D1E902542C434D7944EA5B
:1009A000450420439060D06A20F470000C7C641EE3
:1009B000E4B2234340EA0350D06230BD002101601D
:1009C000017141718160C16001210174704721B1E1
:1009D000826842F00102826003E0826822F0010234
:1009E0008260704721B1826842F48072826003E0C5
:1009F000826822F480728260704710B50023CBB207
:100A00001AB144681C43446002E044689C4344605B
:100A100010BD816841F008018160704701460020E7
:100A20008A6802F008020AB1012000E00020704745
:100A3000816841F0040181607047014600208A68A6
:100A400002F004020AB1012000E00020704721B149
:100A5000826842F4A002826003E0826822F4A0026D
:100A600082607047014600208A6802F480020AB161
:100A7000012000E00020704710B50A460021002345
:100A8000416821F46041531E41EA4331416010BD89
:100A900021B1426842F40062426003E0426822F4FD
:100AA000006242607047F0B504460D460020002108
:100AB000092D11DDE068A5F10A0606EB46070726B9
:100AC00006FA07F18843A5F10A0606EB460603FA83
:100AD00006F10843E0600CE0206905EB45070726B6
:100AE00006FA07F1884305EB450603FA06F10843C9
:100AF0002061072A0FDA606B561E06EB86071F2659
:100B000006FA07F18843561E06EB860605FA06F13B
:100B10000843606322E00D2A0FDA206BD61F06EB34
:100B200086071F2606FA07F18843D61F06EB8606BE
:100B300005FA06F10843206310E0E06AA2F10D0611
:100B400006EB86071F2606FA07F18843A2F10D0679
:100B500006EB860605FA06F10843E062F0BD21B116
:100B6000826842F48012826003E0826822F480127C
:100B7000826070470146C86C80B2704766484C304E
:100B80000068704721B1426842F48062426003E02D
:100B9000426822F480624260704721B1426842F4A8
:100BA0008052426003E0426822F480524260704703
:100BB0000A460021816821F4E041114381607047B9
:100BC00021B1826842F40042826003E0826822F42C
:100BD00000428260704721B1826842F40212826052
:100BE00003E0826822F4021282607047014600200E
:100BF0008A6802F400120AB1012000E00020704768
:100C0000F0B504461546002000220026092911DD12
:100C1000E068A1F10A0707EB470C072707FA0CF277
:100C20009043A1F10A0707EB470703FA07F21043C5
:100C3000E0600CE0206901EB410C072707FA0CF299
:100C4000904301EB410703FA07F210432061A06BC8
:100C5000C0F30156EF1C06F1010CA7EB0C0707EBE4
:100C6000870C1F2707FA0CF29043EF1C06F1010CCA
:100C7000A7EB0C0707EB870701FA07F21043A06305
:100C8000F0BD10B50A4600210023816B21F440110C
:100C9000531E41EA0351816310BD08B50023009340
:100CA0000090009B0B440093009B1A6008BD08B5A0
:100CB000024600200090009201F12800009B184499
:100CC00000900098006880B208BD0A460021416883
:100CD000164B194011434160704741628262704770
:100CE0000A460021416821F01F011143416070470D
:100CF00040B109490831096841F40001064A083247
:100D0000116007E004490831096821F40001024A32
:100D100008321160704700000024014000280140A3
:100D2000003C0140FFFEF0FFFDF7F1FFFFFD3FFF3C
:100D30000246002013680B400BB1012000E00020A8
:100D40007047CA430260704770B502460020002316
:100D500000240B125568CEB205EA060415681D4042
:100D600015B10CB1012000E0002070BD00220A1274
:100D7000D34303607047000010B50446CC4884425A
:100D800008D10121042000F04DFB0021042000F0D7
:100D900049FB46E0C748844208D10121082000F001
:100DA00041FB0021082000F03DFB3AE0C2488442AC
:100DB00008D10121102000F035FB0021102000F0A7
:100DC00031FB2EE0BD48844208D10121202000F0F3
:100DD00029FB0021202000F025FB22E0B8488442B6
:100DE00008D10121402000F01DFB0021402000F02F
:100DF00019FB16E0B348844208D10121802000F09D
:100E000011FB0021802000F00DFB0AE0AE48844277
:100E100007D10121801500F005FB0021A01500F08D
:100E200001FB10BD10B50121084600F0FBFA0021BE
:100E3000012000F0F7FA10BD2DE9F041024600252F
:100E40000026002000230024002791F803C00CF0A6
:100E50000F0591F803C00CF0100CBCF1000F03D08B
:100E600091F802C04CEA050591F800C0BCF1000FF2
:100E700031D0146800202BE04FF0010C0CFA00F385
:100E8000B1F800C00CEA03069E4220D183004FF067
:100E90000F0C0CFA03F7BC4305FA03FC4CEA0404FC
:100EA00091F803C0BCF1280F06D14FF0010C0CFAE9
:100EB00000FCC2F814C00AE091F803C0BCF1480F6E
:100EC00005D14FF0010C0CFA00FCC2F810C0401C18
:100ED0000828D1D31460B1F800C0BCF1FF0F34DD95
:100EE000546800202EE000F1080C4FF0010808FAC9
:100EF0000CF3B1F800C00CEA03069E4221D1830036
:100F00004FF00F0C0CFA03F7BC4305FA03FC4CEA54
:100F1000040491F803C0BCF1280F05D100F1080CBE
:100F200008FA0CF8C2F8148091F803C0BCF1480F1D
:100F300007D100F1080C4FF0010808FA0CF8C2F8CC
:100F40001080401C0828CED35460BDE8F0814FF6D5
:100F5000FF710180022181700421C1707047024637
:100F6000002093680B400BB1012000E00020704787
:100F70000146886880B2704702460020D3680B4063
:100F80000BB1012000E0002070470146C86880B224
:100F9000704701617047416170470AB1016100E02B
:100FA00041617047C16070474FF480320A438261EB
:100FB0008161826182698269704702460020434BE9
:100FC00018684FF68073184040EA021008433F4B00
:100FD000186070473E49C8617047F0B50A46002363
:100FE00000240021002500F00046B6F1004F02D198
:100FF000364EF16901E0354E7168C0F3034583B2A6
:1010000000F44016B6F5401F08D121F070612F4E54
:10101000766826F070662D4F7E6012E000F4801630
:10102000B6F5801F06D1032606FA05F4A14341F068
:10103000706106E0460D360103FA06F6B14341F051
:10104000706122B1460D360103FA06F6314300F015
:101050000046B6F1004F02D11C4EF16101E01B4E7B
:101060007160F0BD30B500228B071C0F0F2303FA0F
:1010700004F2164B08338C1053F824309343134C6E
:1010800008348D1044F8253023468C1053F8243052
:101090008C07240F00FA04F423430C4C08348D1001
:1010A00044F8253030BD0A49DC3108607047000043
:1010B00000080140000C01400010014000140140F4
:1010C00000180140001C01400020014000000140C8
:1010D000000020420E49086070470D494860704783
:1010E0000B49886070474AF6AA2009490860704792
:1010F0004CF6CC4006490860704701460020044A7F
:10110000D2680A400AB1012000E0002070470000C8
:1011100000300040DF48006840F00100DD49086011
:1011200008464068DC490840DA49486008460068DB
:10113000DA490840D74908600846006820F4802052
:1011400008600846406820F4FE0048604FF41F0025
:1011500088607047CF49096821F48031CD4A116019
:101160001146096821F480211160B0F5803F03D059
:10117000B0F5802F0ED106E0C649096841F48031F0
:10118000C44A116007E0C349096841F4A021C14A7B
:10119000116000E000BF00BF704710B5014600229B
:1011A000002300204A11012A02D1BA4C236806E02C
:1011B000022A02D1B74C236A01E0B64C636A01F0FF
:1011C0001F02012494401C400CB1012000E00020CB
:1011D00010BD38B5002000900024002500BF31204C
:1011E000FFF7DBFF05460098401C00900098B0F523
:1011F000A06F01D0002DF2D03120FFF7CEFF08B153
:10120000012400E00024204638BD01460020A14A08
:10121000106820F0F80040EAC10010607047A04953
:1012200008607047024600209A4B586820F47C10F2
:1012300042EA01031843974B586070479849086683
:10124000704701460020934A506820F0030008438D
:10125000506070478F48406800F00C0070470146AE
:1012600000208C4A506820F0F0000843506070471E
:1012700001460020874A506820F4E060084350602F
:10128000704701460020834A506820F4605040EACD
:10129000C1005060704729B17E4A527A02437D4BAB
:1012A0005A7204E07B4A527A82437A4B5A727047F0
:1012B0007B49D8310860704701460020754A506864
:1012C00020F440400843506070470021714A2032AA
:1012D0001170704A82F82010012802D004280AD127
:1012E00004E001216B4A2032117005E00521694AB2
:1012F0002032117000E000BF00BF704769490860EC
:1013000070476449096A0143624A1162704765493E
:1013100044390860704730B50021002200240023C2
:101320005C4D6D6805F00C0121B1042905D0082938
:1013300023D105E05C4D056022E05B4D05601FE0B8
:10134000544D6D6805F47012524D6D6805F480348B
:10135000022505EB92421CB9544D554305600BE044
:101360004C4D6D6805F400351DB1504D5543056079
:1013700002E04D4D5543056002E04B4D056000BF56
:1013800000BF444D6D6805F0F0010909484D6B5CE4
:101390000568DD4045603F4D6D6805F4E061090A70
:1013A000434D6B5C4568DD4085603A4D6D6805F4E2
:1013B0006051C90A3E4D6B5C4568DD40C560354DE6
:1013C0006D6805F44041890B3A4D6B5CC568B5FB0F
:1013D000F3F5056130BD29B12E4A526902432D4B08
:1013E0005A6104E02B4A526982432A4B5A61704782
:1013F00029B1284A92690243264B9A6104E0254AA2
:1014000092698243234B9A61704729B1214AD2697C
:101410000243204BDA6104E01E4AD26982431D4B2D
:10142000DA61704729B11B4AD2680243194BDA606E
:1014300004E0184AD2688243164BDA60704729B13B
:10144000144A12690243134B1A6104E0114A1269EB
:101450008243104B1A617047124940390860704747
:101460000F49C86470470B49C87170470948406A02
:1014700040F0807007494862704701460020054AE5
:1014800092680A400AB1012000E00020704701493B
:1014900088727047001002400000FFF8FFFFF6FE60
:1014A000000042428004424200127A0000093D00DE
:1014B000180000202800002010B50446FE48844291
:1014C00008D10121C014FFF7ADFF0021E014FFF7A0
:1014D000A9FFC4E0B4F1804F08D101210846FFF70D
:1014E000AEFF00210120FFF7AAFFB8E0F3488442D5
:1014F00008D101210220FFF7A2FF00210220FFF7FF
:101500009EFFACE0EE48844208D101210420FFF7A1
:1015100096FF00210420FFF792FFA0E0E9488442F3
:1015200008D101210820FFF78AFF00210820FFF7DA
:1015300086FF94E0E448844208D101211020FFF79F
:101540007EFF00211020FFF77AFF88E0DF48844209
:1015500008D101212020FFF772FF00212020FFF792
:101560006EFF7CE0DA48844208D101214014FFF785
:1015700059FF00216014FFF755FF70E0D548844201
:1015800009D10121C804FFF74DFF00214FF40020CD
:10159000FFF748FF63E0D048844209D101210805E4
:1015A000FFF740FF00214FF48010FFF73BFF56E0AC
:1015B000CA48844209D101214805FFF733FF0021C1
:1015C0004FF40010FFF72EFF49E0C548844208D1D0
:1015D00001214020FFF733FF00214020FFF72FFFBC
:1015E0003DE0C048844208D101218020FFF727FF59
:1015F00000218020FFF723FF31E0BB48844208D15F
:1016000001218015FFF71BFF0021A015FFF717FF31
:1016100025E0B648844209D101210804FFF702FF02
:1016200000214FF48030FFF7FDFE18E0B0488442FF
:1016300009D101214804FFF7F5FE00214FF40030E5
:10164000FFF7F0FE0BE0AB48844208D1012188048B
:10165000FFF7E8FE00214FF48020FFF7E3FE10BD06
:1016600000220288944B98420ED0994B98420BD09E
:10167000B0F1804F08D0914B984205D0904B9842E2
:1016800002D0904B984204D14FF68F731A404B888A
:101690001A438D4B984207D08C4B984204D04FF69A
:1016A000FF431A40CB881A4302808B8883850B88BE
:1016B0000385814B98420BD0854B984208D08B4BC9
:1016C000984205D08A4B984202D08A4B984201D169
:1016D0000B7A038601238382704770B500240022B1
:1016E0000023058C4FF6FE7635400584028C8388F6
:1016F000048B4FF68F752C40B51E2C400D882C4363
:10170000751E2A400D892A434D882A436A4DA842F6
:101710000BD06F4DA84208D0744DA84205D0744D2F
:10172000A84202D0734DA84213D14FF6F7752A4054
:101730004D892A434FF6FB752A408D882A434FF680
:10174000FF652B404FF6FF552B408D892B43CD89EC
:101750002B4383800483CD888586028470BD70B559
:10176000002400220023058C4FF6EF7635400584D7
:10177000028C8388048B48F6FF752C404FF6FF459A
:101780002C400D884FF6FF7606EA05252C434FF6D0
:10179000DF752A400D8906EA05152A434D8806EAB9
:1017A00005152A43444DA84202D0494DA8421DD1F7
:1017B0004FF67F752A404D894FF6FF7606EA0515EC
:1017C0002A434FF6BF752A408D8806EA05152A433D
:1017D0004FF6FF352B404FF2FF752B408D8906EAFF
:1017E00085052B43CD8906EA85052B438380048339
:1017F000CD880587028470BD70B5002400220023C7
:10180000058C4FF6FF6635400584028C8388848BF7
:101810004FF68F752C404FF6FC752C400D882C43ED
:101820004FF6FF552A400D894FF6FF7606EA05254B
:101830002A434D8806EA05252A431F4DA84202D0B7
:10184000234DA8421DD14FF2FF752A404D894FF616
:10185000FF7606EA05252A434FF6FF352A408D8894
:1018600006EA05252A434EF6FF752B404DF6FF7517
:101870002B408D8906EA05152B43CD8906EA05150F
:101880002B4383808483CD888587028470BD70B5A7
:10189000002200230024058C4EF6FF763540058497
:1018A000038C8488828B48F6FF752A404FF6FF45EB
:1018B0002A400D8820E00000002C01400004004078
:1018C00000080040000C00400010004000140040E0
:1018D00000340140004C01400050014000540140E0
:1018E00000180040001C0040002000400040014063
:1018F00000440140004801404FF6FF7606EA052506
:101900002A434DF6FF752B400D8906EA05352B431A
:101910004D8806EA05352B43FA4DA84202D0FA4D10
:10192000A84208D14BF6FF752C408D894FF6FF7603
:1019300006EA85152C4384808283CD88A0F8405028
:10194000038470BD828B4FF2FF331A408283828BF7
:101950004FF6FF7303EA01231A4382837047F0B501
:101960000C461546002200210026078C4EF6FF7C0F
:1019700007EA0C070784828B018C4FF6FF7707EA92
:10198000043640F6FF473A404FF6FF7707EA05274F
:101990003A434FF6FF7707EA03373A43D94FB84245
:1019A0000ED0D94FB8420BD0B0F1804F08D0D74FEE
:1019B000B84205D0D64FB84202D0D64FB84206D171
:1019C0004DF6FF77394046F48057394305E047F636
:1019D000FF57394044F48057394382830184F0BD76
:1019E000828B4FF6F3731A408283828B0A43828381
:1019F0007047F0B50C461546002200210026078CE2
:101A00004FF6FF6C07EA0C070784828B018C4FF6B8
:101A1000FF7707EA04264FF60C773A404FF6FF7738
:101A200007EA03172F433A43B64FB8420ED0B64FDA
:101A3000B8420BD0B0F1804F08D0B44FB84205D0B7
:101A4000B34FB84202D0B34FB84206D14FF6FF575A
:101A5000394046F48077394305E04FF2FF5739406B
:101A600044F48077394382830184F0BD028B4FF2C6
:101A7000FF331A400283028B4FF6FF7303EA012300
:101A80001A4302837047F0B50C4615460022002128
:101A90000026078C4FF6EF7C07EA0C070784028BC1
:101AA000018C4FF6FF7707EA041640F6FF473A40ED
:101AB0004FF6FF7707EA03373A434FF6FF7707EA17
:101AC00005273A438F4FB8420ED08F4FB8420BD004
:101AD000B0F1804F08D08D4FB84205D08C4FB8423E
:101AE00002D08C4FB84206D14FF6DF77394046F02E
:101AF0001007394305E04FF65F77394044F010078F
:101B0000394302830184F0BD028B4FF6F3731A4010
:101B10000283028B0A4302837047F0B50C461546D8
:101B200000220021068C4FF6FE773E400684028B91
:101B3000018C4FF60C7632407E1C06EA03162E43CB
:101B40003243704EB0420ED06F4EB0420BD0B0F167
:101B5000804F08D06D4EB04205D06D4EB04202D0DD
:101B60006C4EB04206D14FF6FD76314044F001068E
:101B7000314305E04FF6F576314044F0010631433C
:101B800002830184F0BD70B505460C465D48854270
:101B90000ED05D4885420BD0B5F1804F08D05B4830
:101BA000854205D05A48854202D05A48854200D124
:101BB00000E000BF208850B92389A28861882846A8
:101BC000FFF7ABFFE1882846FFF79EFF25E020885E
:101BD00004280AD12389A28861882846FFF753FF89
:101BE000E1882846FFF742FF17E0208808280AD13D
:101BF0002389A28861882846FFF7FBFEE1882846F2
:101C0000FFF7EEFE09E02389A28861882846FFF7E6
:101C1000A6FEE1882846FFF795FE70BD2DE9F0414C
:101C200005460C4600260127608808B9022600E018
:101C30000026A088012801D1022700E00127208882
:101C4000A0B92389A28861882846FFF766FFE1884A
:101C50002846FFF759FF23893A4631462846FFF7C1
:101C600012FFE1882846FFF701FF13E02389A288CD
:101C700061882846FFF707FFE1882846FFF7F6FE50
:101C800023893A4631462846FFF747FFE188284630
:101C9000FFF73AFFBDE8F0810A884B881A438B882A
:101CA0001A43CB881A430B891A434B891A438B89F1
:101CB0001A43A0F8442070474FF6FF71818000213D
:101CC0000180C18041800172704700210180418004
:101CD0008180C180018141818181C1817047002162
:101CE00001804180012181800021C18001817047F4
:101CF0000021018041808180C180018141818181F9
:101D000070470000002C01400034014000040040F6
:101D100000080040000C004021B1028842F001029E
:101D2000028004E002884FF6FE731A40028070477A
:101D300031B1B0F8442042F40042A0F8442005E05C
:101D4000B0F84420C2F30E02A0F8442070471AB144
:101D500083890B43838102E083898B4383817047AE
:101D60008182704741EA0203A0F8483070471AB1F7
:101D700083890B43838102E083898B43838170478E
:101D800001894FF6F8721140018170470A4600211F
:101D900001894FF68F73194011430181704730B5A7
:101DA00004460D4629462046FFF7F0FF208940F003
:101DB0000700208130BD2DE9F04104460D4616464E
:101DC0001F46602D06D13B46012231462046FFF7D3
:101DD0005AFE05E03B46012231462046FFF79DFEB4
:101DE00029462046FFF7D2FF208940F007002081D6
:101DF000BDE8F08130B50C4600210189C9B24FF62B
:101E0000FF7505EA0325154325432943018130BDAC
:101E10002DE9F04105460E461746984600244346F4
:101E20003A4631462846FFF7E5FF2C894FF6F87011
:101E3000044044F007044FF68F70044044F07004EF
:101E40002C81BDE8F081F0B504460D4616461F46CC
:101E50003B46324629462046FFF7CCFF208940F416
:101E600080402081F0BD0185828270470A460021B2
:101E700001884FF68F731940114301807047F0B508
:101E80000C4615461E460021002200230189028BC4
:101E9000038C4FF6F877394021434FF6FC473A4020
:101EA00040F201173A434FF6DD773B404FF6FF779C
:101EB00007EA06172F433B43018102830384F0BDE9
:101EC0000A460021018B4FF68F731940114301839D
:101ED00070470A460021018B48F6FF7319404FF600
:101EE000FF7303EA02231943018370470A46002166
:101EF000818B4FF68F7319401143818370470A46D7
:101F00000021818B48F6FF7319404FF6FF7303EAF7
:101F1000022319438183704721B1028842F0800275
:101F2000028004E002884FF67F731A4002807047F7
:101F300021B1828842F00402828004E082884FF658
:101F4000FB731A408280704721B1828842F00802F8
:101F5000828004E082884FF6F7731A4082807047CF
:101F600021B1828842F00102828004E082884FF62B
:101F7000FE731A40828070470A460021018B4FF69B
:101F8000F77319401143018370470A460021018B02
:101F90004FF2FF7319404FF6FF7303EA0223194310
:101FA000018370470A460021818B4FF6F773194071
:101FB0001143818370470A460021818B4FF2FF73E2
:101FC00019404FF6FF7303EA0223194381837047D8
:101FD0000A460021018B4FF6FB7319401143018320
:101FE00070470A460021018B4FF6FF3319404FF628
:101FF000FF7303EA02231943018370470A46002155
:10200000818B4FF6FB7319401143818370470A4659
:102010000021818B4FF6FF3319404FF6FF7303EA1F
:1020200002231943818370470A460021018B4FF632
:102030007F7319401143018370470A460021018BC9
:10204000C1F30E014FF6FF7303EA02231943018324
:1020500070470A460021818B4FF67F731940114368
:10206000818370470A460021818BC1F30E014FF630
:10207000FF7303EA02231943818370470A46002154
:10208000018C4FF6FD7319401143018470470A46D5
:102090000021018C4FF6F7731940114301847047FA
:1020A0000A460021018C4FF6DF7319404FF6FF738B
:1020B00003EA02131943018470470A460021018C88
:1020C0004FF67F7319404FF6FF7303EA021319436B
:1020D000018470470A460021018C4FF6FF531940D6
:1020E0004FF6FF7303EA02231943018470470A463F
:1020F0000021018C4FF2FF7319404FF6FF7303EA82
:1021000002231943018470470A460021018C4DF6D1
:10211000FF7319404FF6FF7303EA0233194301843A
:10212000704730B5002301248C40A3B2048C9C433B
:102130000484048C02FA01F5ADB22C43048430BD52
:1021400030B5002304248C40A3B2048C9C43048447
:10215000048C02FA01F5ADB22C43048430BD70B595
:102160000346002000241846183001258D40ACB2EB
:102170001D8CA5431D8409B1082909D100EB61001C
:10218000056825F0700505600568154305600EE0DB
:102190000D1FC5F34E052844056825F4E04505608C
:1021A00005684FF6FF7606EA02263543056070BDE6
:1021B00021B1028842F00202028004E002884FF658
:1021C000FD731A400280704721B1028842F0040278
:1021D000028004E002884FF6FB731A4002807047C9
:1021E00021B1828842F08002828004E082884FF62A
:1021F0007F731A408280704702884FF6F7731A4047
:10220000028002880A430280704782884FF68F73EB
:102210001A40828082880A438280704702894FF682
:10222000F8731A40028102890A43028170470289C9
:102230004FF67F731A40028102890A430281704778
:102240008184704781857047818670470187704718
:1022500081877047A0F84010704702884FF6FF430F
:102260001A40028002880A43028070470146888E25
:1022700070470146088F70470146888F70470146B6
:10228000B1F8400070470146888C70470146088DC0
:10229000704702460020138A0B400BB1012000E07A
:1022A00000207047CA430282704730B502460020C2
:1022B00000230024158A05EA0103958905EA010433
:1022C00013B10CB1012000E0002030BDCA430282EE
:1022D0007047000010B50446FB48844209D1012133
:1022E0008803FFF79FF800214FF48040FFF79AF82A
:1022F00032E0F648844209D101214804FFF79FF8F3
:1023000000214FF40030FFF79AF825E0F0488442AE
:1023100009D101218804FFF792F800214FF48020B1
:10232000FFF78DF818E0EB48844209D10121C80479
:10233000FFF785F800214FF40020FFF780F80BE04D
:10234000E548844208D101210805FFF778F800210B
:102350004FF48010FFF773F810BD2DE9F04786B0F9
:1023600005460E460024A24600BFA1460027B089BC
:1023700000B100BF2F462C8A4CF6FF700440F08855
:1023800004432C82AC894EF6F3100440B0883189A6
:102390000843718908430443AC81AC8A4FF6FF407F
:1023A0000440B0890443AC8201A8FEF7B4FFC648DC
:1023B000874202D1DDF810A001E0DDF80CA0A88969
:1023C00000F4004040B10AEBCA0000EB0A1031688B
:1023D0004900B0FBF1F807E00AEBCA0000EB0A1075
:1023E00031688900B0FBF1F86420B8FBF0F004011B
:1023F0002009642101FB1089A88900F4004040B144
:10240000322000EBC900B0FBF1F000F007000443FC
:1024100008E0322000EB09106421B0FBF1F000F07D
:102420000F0004432C8106B0BDE8F0874FF416512D
:10243000016000218180C18001810C214181002146
:102440008181704710B502460020108A4FF2FF03C9
:1024500018400B884C8823438C882343CC88234323
:102460001843108210BD0021018041808180C1800D
:10247000704721B1828942F40052828104E082894E
:102480004DF6FF731A4082817047F0B50346002471
:1024900000260025002040F66A17B94200D100BF8F
:1024A0001846C1F3421401F01F06012707FA06F58A
:1024B000012C01D10C3004E0022C01D1103000E0DD
:1024C00014301AB107682F43076002E00768AF4372
:1024D0000760F0BD1AB1838A0B43838202E0838ACE
:1024E0008B4383827047028A4FF6F0731A40028250
:1024F000028A0A430282704782894FF2FF731A40B0
:10250000828182890A438281704721B1828942F0A7
:102510000202828104E082894FF6FD731A408281B3
:102520007047028A4FF6DF731A400282028A0A431A
:102530000282704721B1028A42F48042028204E0A2
:10254000028A4BF6FF731A4002827047C1F30802F9
:102550008280704701468888C0F3080070478189EF
:1025600041F0010181817047028BD2B20283028B5C
:1025700042EA012202837047028B02F47F42028307
:10258000028B0A430283704721B1828A42F0200203
:10259000828204E0828A4FF6DF731A40828270479B
:1025A00021B1828A42F01002828204E0828A4FF6D0
:1025B000EF731A408282704721B1828A42F008028A
:1025C000828204E0828A4FF6F7731A408282704753
:1025D00021B1828942F40042828103E08289C2F300
:1025E0000E028281704721B1828A42F400628282A7
:1025F00004E0828A4FF2FF731A4082827047828A17
:102600004FF6FB731A408282828A0A4382827047A5
:1026100021B1828A42F00202828204E0828A4FF66D
:10262000FD731A408282704702460020B1F5007F98
:1026300000D100BF13880B400BB1012000E0002047
:10264000704701F40072B2F5007F00D100BFCA43A9
:102650000280704770B50246002400230025002048
:1026600040F66A16B14200D100BFC1F3421501F035
:102670001F03012606FA03F3012D02D19689334088
:1026800006E0022D02D1168A334001E0968A3340DB
:102690000C12012606FA04F41688344013B10CB16A
:1026A000012000E0002070BD10B50022002340F69C
:1026B0006A14A14200D100BF0A1201249440A3B2BF
:1026C000DC43048010BD000000380140004400409D
:1026D00000480040004C00400050004010B56FF032
:1026E0000400FEF702F92E4800682E49B0FBF1F015
:1026F0002D4908700846007800EB4001C1EBC0107E
:102700004FF6FF7101EAC0002849088010BD01465C
:10271000254A12784A434FF0E0235A6100229A6119
:102720001A46126942F001021A6100BF4FF0E0221E
:10273000106900F001021AB100F48032002AF5D0CD
:102740004FF0E022126922F001024FF0E0231A61FB
:1027500000229A6170470146144A12884A434FF09A
:10276000E0235A6100229A611A46126942F001027E
:102770001A6100BF4FF0E022106900F001021AB1A7
:1027800000F48032002AF5D04FF0E022126922F0E6
:1027900001024FF0E0231A6100229A6170470000A5
:1027A0000400002000127A002C0000202E000020DF
:1027B00000BF704700BF544A128802F04002002A4E
:1027C000F9D0C2B2504B1B1D1A80704710B586B0AD
:1027D0000446012144F20400FEF70AFE4FF40070A3
:1027E000ADF8140003208DF8160018208DF817009E
:1027F00005A94648FEF720FB4FF48060ADF81400B1
:1028000004208DF8170005A94048FEF715FB252088
:102810008DF8000003208DF801008DF802000120E2
:102820008DF803006846FEF716F801940020ADF815
:102830000800ADF80A00ADF80C00ADF810000C204F
:10284000ADF80E0001A93048FFF787FD012240F2E4
:1028500025512D48FFF719FE01212B48FFF709FEEE
:1028600006B010BD10B540F225512748FFF7F2FE23
:1028700010B32548FFF76EFEC4B22548008800F467
:102880000040C8B92248008800F4804060B10A2C9A
:1028900003D000201E49088020E01D48008840F435
:1028A00000401B49088019E00D2C06D1184800880B
:1028B00040F480401649088010E015480088C0F3B5
:1028C0000D0014490C5412480088401C104908801F
:1028D00008460088C72801DD0020088010BD70B5BB
:1028E00005460E4600240BE0295D0748FFF72EFE43
:1028F00000BF80210448FFF797FE0028F9D0641C30
:10290000B442F1D370BD000000380140000801401E
:1029100034000020860E0020002100E0491C814286
:10292000FCD3704770B5044600258F48008800F43A
:102930000040C8B100208C490988C1F30E018B4AC0
:1029400050542146104603F06DFE054688A003F062
:102950008FFC284603F09CFE064631462846FFF7CA
:10296000BEFF002080490880284670BD2DE9F04157
:1029700006460D461446002700207B49088080A0AB
:1029800003F076FC314682A000F0E0FA82A003F06A
:102990006FFCE5B1DCB113E00A20FFF7DCFE724802
:1029A000008800F4004058B12846FFF7BBFF20B173
:1029B00029467FA003F05CFC06E000206A490880FD
:1029C000601E80B2041EE7D100BF04B9012738465B
:1029D000BDE8F08110B54FF4FA70FFF7BCFE77A0A8
:1029E00003F046FC4FF4FA7279A17AA0FFF7BEFF1C
:1029F0007BA003F03DFC82A003F03AFC4FF4FA7296
:102A000082A18FA0FFF7B2FF4FF47A70FFF7A3FE09
:102A10004FF47A70FFF79FFE4FF47A70FFF79BFE3A
:102A20004FF47A70FFF797FE87A003F021FC00BFF8
:102A30004FF4167266A187A0FFF798FF0028F7D120
:102A40008DA003F015FC4FF4FA7261A18DA0FFF781
:102A50008DFF8FA003F00CFC00BF4FF416725CA139
:102A60008FA0FFF783FF0028F7D197A003F000FCA9
:102A700010BD10B500BF4FF4FA7255A196A0FFF734
:102A800075FF0028F7D14FF4167251A196A0FFF7F9
:102A90006DFF98A003F0ECFB10BD10B501249BA1C5
:102AA0009BA000F053FA9B48FFF736FF4FF4FA72F1
:102AB00047A199A0FFF75AFF0446002C1FD093A10D
:102AC00093A000F043FA9348FFF726FF4FF4FA7201
:102AD0003FA191A0FFF74AFF04461CB18FA003F06D
:102AE000C7FB18E092A003F0C3FB00BF4FF4FA72DB
:102AF00037A194A0FFF73AFF0028F7D10BE095A08B
:102B000003F0B6FB00BF4FF4FA7231A18DA0FFF7BE
:102B10002DFF0028F7D1204610BD7CB505460C4698
:102B20006E46002010490880294679A000F00EFA70
:102B3000C4B112E00A20FFF70EFE0B48008800F433
:102B4000004050B1002008490988C1F30E01074A2E
:102B5000505416460449088003E0601E80B2041EEB
:102B6000E8D100BF30467CBD360000204E0F00206B
:102B7000BDD3CAD5B5C4CAFDBEDDCEAA3A0A00008F
:102B8000BFAACABCB7A2CBCDC3FCC1EE21000000D6
:102B900025730D0A00000000B7A2CBCDC3FCC1EE27
:102BA000CDEAB3C921B5C8B4FDD3A6B4F000000086
:102BB00061636B3A25730D0A00000000BFAACABC0E
:102BC000C9E8D6C3B9A4D7F7C4A3CABD2100000081
:102BD0004F4B000041542B43574D4F44453D31006E
:102BE000C9E8D6C3B9A4D7F7C4A3CABDCEAA737423
:102BF0006174696F6EC4A3CABDCDEAB3C921000078
:102C0000BDF8D0D0D6D8C6F4210000005B56656E62
:102C1000646F723A7777772E61692D7468696E6B8D
:102C200065722E636F6D2056657273696F6E3A30F0
:102C30002E392E322E345D0D7265616479000000EC
:102C400041542B5253540000D6D8C6F4CDEAB3C930
:102C50000000000041542B43574A41503D22597512
:102C60007A754465736B546F70222C22364336306C
:102C7000363636362200000077696669D2D1C1AC9B
:102C8000BDD3210041542B4349504D55583D300090
:102C9000D2D1C9E8D6C3B5A5C2B7C1ACBDD3210056
:102CA00041542B43495053544152543D22544350B4
:102CB000222C223139322E3136382E3133372E3113
:102CC000222C313030303500746370C1ACBDD3D2AA
:102CD000D1BDA8C1A221000041542B4349504D4F02
:102CE00044453D310000000041542B4349505345B9
:102CF0004E440000CDB8B4ABC4A3CABDB4ABCAE463
:102D0000CAFDBEDDD2D1BFAACABC21002B2B2B002D
:102D10002573000000A3E11141540000CDCBB3F6B0
:102D2000CDB8B4ABC4A3CABDCAA7B0DC2121000092
:102D3000CDCBB3F6CDB8B4ABC4A3CABDB3C9B9A6A5
:102D40002121000041542B4349504D4F44453D3013
:102D500000000000CDCBB3F6CDB8B4ABC4A3CABD60
:102D6000B3C9B9A62100000010B501212648FFF71C
:102D70009CFAD0B12548008800F4004058B124A046
:102D8000FFF7D0FD20B100202049088000BFFEE7FA
:102D900000F0A4FA01E000F0A1FA01211A48FFF7BF
:102DA00095FA00211848FEF7B7FF10BD7FB505461C
:102DB0000C4601212020FEF728FBADF80450ADF8A9
:102DC00000400020ADF80600ADF8020069460E484C
:102DD000FEF746FC012211460B48FEF7B8FF012121
:102DE0000948FEF799FF37208DF80C0000208DF878
:102DF0000D0002208DF80E0001208DF80F0003A8B1
:102E0000FDF729FD7FBD00000014004036000020C2
:102E10004552524F5200000010B586B004460121C1
:102E20000820FEF7E5FA01218804FEF7EEFA5B4878
:102E3000FFF750FA4FF48060ADF8100003208DF8D2
:102E4000120018208DF8130004A95548FDF7F4FF6F
:102E50004FF40060ADF8100004208DF8130004A9B1
:102E60004F48FDF7E9FF00940020ADF80400ADF8ED
:102E70000600ADF80800ADF80C000C20ADF80A0013
:102E800069464648FFF769FA01214448FFF7F1FA1D
:102E9000012240F225514148FFF7F7FA27208DF82B
:102EA000140002208DF8150003208DF81600012073
:102EB0008DF8170005A8FDF7CEFC41F61F4140F242
:102EC000E730FFF773FF00203649088000213648BD
:102ED000FEF722FF06B010BD10B5002440F22551C8
:102EE0002E48FFF7B7FB80B32C48FFF733FBC4B283
:102EF0002C48008800F4004010BB2A480088B0F538
:102F0000167F17DA00212848FFF79AF9254800882C
:102F100040B94FF41671254803F09BFC012122486B
:102F2000FEF7FAFE1F490888411C1E4A11801F49FE
:102F30000C5405E01B48008840F400401949088003
:102F400040F225511548FFF7AFFB10BD0FB438B55F
:102F500005A800901648009A049903F077F900201C
:102F60000090134803F094FB85B200240DE000BFED
:102F700040210A48FFF758FB0028F9D00C48015DB2
:102F80000648FFF7E3FA601C84B2AC42EFDB09A00D
:102F900003F06EF938BC5DF814FB000000480040F7
:102FA000000C014036000020001400404E0F0020AD
:102FB000A6110020B7A2CBCDD2BBCCF54F4B210A36
:102FC0000000000008B501211020FEF711FA48208A
:102FD0008DF803004FF6FF70ADF8000069462048F9
:102FE000FDF72AFF08BD0EB501210420FEF700FA07
:102FF00010208DF80B004FF6FF00ADF808000320FD
:103000008DF80A0002A91748FDF716FF01210820D4
:10301000FEF7EEF910208DF807004FF2FC30ADF806
:10302000040003208DF8060001A90F48FDF704FFF6
:1030300001212020FEF7DCF910208DF80300032089
:10304000ADF800008DF8020069460848FDF7F4FE6F
:103050000EBD10B5FFF7C7FFFFF7B4FF10BD0000AE
:103060000010014000080140000C01400014014024
:1030700000B587B001210820FEF7BAF90121480206
:10308000FEF7B6F94FF40040FEF716F900208DF870
:103090001B000120ADF8180006A95448FDF7CCFE2E
:1030A0005348FDF741FC002001908DF808008DF891
:1030B00009004FF4602003900020049001208DF857
:1030C000140001A94A48FDF756FC01214848FDF7C4
:1030D0007EFC4748FDF79DFC00BF4548FDF79EFC80
:1030E0000028FAD14248FDF7A3FC00BF4048FDF795
:1030F000A4FC0028FAD101213D48FDF7A8FC07B047
:1031000000BD00B587B001210820FEF771F901214B
:103110008802FEF76DF94FF40040FEF7CDF800206D
:103120008DF81B000220ADF8180006A92F48FDF706
:1031300083FE3048FDF7F8FB002001908DF8080071
:103140008DF809004FF460200390002004900120C6
:103150008DF8140001A92748FDF70DFC0121254831
:10316000FDF735FC2348FDF754FC00BF2148FDF76F
:1031700055FC0028FAD11F48FDF75AFC00BF1D4836
:10318000FDF75BFC0028FAD101211A48FDF75FFC2E
:1031900007B000BD10B50723012208211448FDF730
:1031A00082FC01211248FDF752FC00BF02211048A9
:1031B000FDF7BEFD0028F9D00D48FDF7DBFC10BD82
:1031C00010B50723012209210A48FDF76CFC0121F3
:1031D0000848FDF73CFC00BF02210648FDF7A8FDAA
:1031E0000028F9D00348FDF7C5FC10BD00140140CC
:1031F00000240140002801407FB505460C4601210E
:103200001020FEF702F9ADF80450ADF800400020A0
:10321000ADF80600ADF8020069462348FEF720FA33
:10322000012211462048FEF792FD01211E48FEF7BB
:1032300073FD36208DF80C0004208DF80D0003205E
:103240008DF80E0001208DF80F0003A8FDF703FB99
:103250007FBD70B501211448FFF727F8F0B113487E
:103260000088B0F5FA7F03DB00201049088015E0E4
:10327000FFF790FF0446FFF7A3FF05460C480B49F4
:10328000098820F811400B480849098820F8115096
:1032900006480088401C0549088000BF01210248FB
:1032A000FFF714F870BD0000001000403800002047
:1032B000580000204004002070B505460C4645F239
:1032C0005550FDF707FF2846FDF707FF2046FDF79D
:1032D00007FFFDF708FFFDF70BFF70BD10B5FDF709
:1032E00002FF10BDFD4908600121FD4A1170FD4A31
:1032F0001170704710B504464FF47A70FFF72BFA3F
:103300004FF47A70FFF727FA092C01D1F64810BD67
:10331000F648FCE71FB5F648FDF72AFE04462246AC
:10332000F4A1684602F0B0FF6946F3A002F0A0FFE6
:10333000E0B204B010BD1FB5ED48FDF719FE04461C
:103340002246ECA1684602F09FFF6946EAA002F01F
:103350008FFF200A04B010BD70B505460C465CB95D
:10336000082D04DCFFF7E7FFE649087017E0FFF7D8
:10337000D1FFE449087012E0012C10D12846FFF774
:10338000B9FF0646002006E03188DF4A22F8101017
:10339000B61C411CC8B2B0F5FA7FF5DB00BF70BDAA
:1033A00070B5044604F0010525B11021D748FDF79A
:1033B000F0FD03E01021D548FDF7EDFD04F0020516
:1033C00025B10821D148FDF7E4FD03E00821CF48ED
:1033D000FDF7E1FD04F0040525B10421CB48FDF71C
:1033E000D8FD03E00421C948FDF7D5FD04F0080528
:1033F00025B10221C648FDF7CCFD03E00221C448F7
:10340000FDF7C9FD04F0100525B10121C048FDF705
:10341000C0FD03E00121BE48FDF7BDFD04F020051D
:103420002DB14FF40041BB48FDF7B3FD04E04FF46C
:103430000041B848FDF7AFFD04F040052DB14FF451
:103440008041B448FDF7A5FD04E04FF48041B14848
:10345000FDF7A1FD04F080052DB14FF40051AD48FA
:10346000FDF797FD04E04FF40051AA48FDF793FDE6
:1034700070BD70B5044604F001052DB14FF48051C4
:10348000A448FDF786FD04E04FF48051A148FDF704
:1034900082FD04F002052DB14FF400619D48FDF757
:1034A00078FD04E04FF400619A48FDF774FD04F0E4
:1034B00004052DB14FF480719648FDF76AFD04E0D4
:1034C0004FF480719348FDF766FD04F0080525B1BF
:1034D00080219048FDF75DFD03E080218D48FDF7D8
:1034E0005AFD04F0100525B140218A48FDF751FD31
:1034F00003E040218748FDF74EFD04F0200525B18B
:1035000020218448FDF745FD03E020218148FDF797
:1035100042FD04F0400525B110217E48FDF739FD3C
:1035200003E010217B48FDF736FD04F0800525B14E
:1035300008217848FDF72DFD03E008217548FDF7C7
:103540002AFD70BD70B505460C46102D13D2DFE87C
:1035500005F008131E29343F4A55606DAEAE7A87D8
:1035600094A124B101216A48FDF713FD03E0012174
:103570006748FDF710FD9AE024B102216448FDF789
:1035800008FD03E002216248FDF705FD8FE024B14C
:1035900004215E48FDF7FDFC03E004215B48FDF7D4
:1035A000FAFC84E024B108215848FDF7F2FC03E05E
:1035B00008215648FDF7EFFC79E024B1102153486B
:1035C000FDF7E7FC03E010215048FDF7E4FC6EE056
:1035D00024B120214D48FDF7DCFC03E020214B48BD
:1035E000FDF7D9FC63E024B140214848FDF7D1FC48
:1035F00003E040214548FDF7CEFC58E024B180218E
:103600004248FDF7C6FC03E080214048FDF7C3FCBB
:103610004DE02CB14FF480713C48FDF7BAFC04E05A
:103620004FF480713948FDF7B6FC40E02CB14FF4FF
:1036300000713648FDF7ADFC04E04FF400713348EB
:10364000FDF7A9FC33E02CB14FF480512F48FDF772
:10365000A0FC04E04FF480512C48FDF79CFC26E0D0
:103660002CB14FF400512948FDF793FC04E04FF4CE
:1036700000512648FDF78FFC19E02CB14FF4804132
:103680002248FDF786FC04E04FF480411F48FDF717
:1036900082FC0CE02CB14FF400411C48FDF779FC92
:1036A00004E04FF400411948FDF775FC00BF00BF6E
:1036B00070BD70B505460C46102D31D2DFE805F01F
:1036C00008313C47525D68737ECCCC8B98A5B2BF65
:1036D00014B301210F48FDF75CFC21E03C00002001
:1036E000010000204000002058000020400400207D
:1036F000001001402558000043302D4331353A2059
:1037000025730A000000002028080020000C01405A
:1037100000140140000801400121FB48FDF73BFC7B
:103720009AE024B10221F848FDF733FC03E00221BE
:10373000F548FDF730FC8FE024B10421F248FDF795
:1037400028FC03E00421F048FDF725FC84E024B1C7
:103750000821ED48FDF71DFC03E00821EA48FDF7CC
:103760001AFC79E024B11021E748FDF712FC03E0D0
:103770001021E548FDF70FFC6EE024B12021E2485E
:10378000FDF707FC03E02021DF48FDF704FC63E0C0
:1037900024B14021DC48FDF7FCFB03E04021DA487E
:1037A000FDF7F9FB58E024B18021D748FDF7F1FB84
:1037B00003E08021D448FDF7EEFB4DE02CB14FF43F
:1037C0008071D148FDF7E5FB04E04FF48071CE48ED
:1037D000FDF7E1FB40E02CB14FF40061CA48FDF772
:1037E000D8FB04E04FF40061C748FDF7D4FB33E099
:1037F0002CB14FF48051C448FDF7CBFB04E04FF4EB
:103800008051C148FDF7C7FB26E02CB14FF40051B1
:10381000BD48FDF7BEFB04E04FF40051BA48FDF788
:10382000BAFB19E02CB14FF48041B748FDF7B1FB6A
:1038300004E04FF48041B448FDF7ADFB0CE02CB13F
:103840004FF40041B048FDF7A4FB04E04FF4004101
:10385000AD48FDF7A0FB00BF00BF70BD2DE9F041F2
:1038600004460E4615461F467FB9412C02D0422C15
:103870000AD104E029463046FFF71BFF04E0294641
:103880003046FFF75FFE00BF0DE0432C02D0442C12
:1038900008D103E02846FFF7ECFD03E02846FFF7D8
:1038A0007FFD00BF00BFBDE8F0812DE9FF5F9748B5
:1038B000006830B900209649087096490870BDE844
:1038C000FF9F95A002F0D4FC9048006802F0D0FC65
:1038D0008E48006801F0A0FA074667B900F0ACFA1C
:1038E000044696A002F0C4FC204602F0C1FC002071
:1038F00088490870E3E794A1384601F040FD80460E
:1039000095A1384601F03BFD039096A1384601F0A1
:1039100036FD029096A1384601F031FD01900398E2
:1039200000287AD04FF0000ADCE05146039801F0FD
:10393000F1FC8346DBF80C0010286FD1DBF8104057
:103940004FF00009002000900AE02078302806DBC4
:103950002078392803DC0098401CC0B20090641C19
:1039600020780028F1D1DBF81040009802280DD112
:103970006078303800EB800009EB400000F0FF0970
:10398000A0783038484400F0FF0904E0607830380F
:10399000484400F0FF09B9F1080F17D2DFE809F039
:1039A00004172A3F5265788B00231A461946412096
:1039B000FFF754FF00231A4601214120FFF74EFF75
:1039C00000231A4602214120FFF748FF86E000232A
:1039D0001A4619464120FFF741FF00231A460121EC
:1039E0004120FFF73BFF0023012202214120FFF786
:1039F00035FF73E000231A4619464120FFF72EFFDA
:103A00000023012211464120FFF728FF00231A4618
:103A100002214120FFF722FF60E069E060E000231F
:103A20001A4619464120FFF719FF002301221146CB
:103A30004120FFF713FF0023012202214120FFF75D
:103A40000DFF4BE00023012219464120FFF706FF3E
:103A500000231A4601214120FFF700FF00231A46E8
:103A600002214120FFF7FAFE38E000230122194627
:103A70004120FFF7F3FE00231A4601214120FFF702
:103A8000EDFE0023012202214120FFF7E7FE25E0A1
:103A90000023012219464120FFF7E0FE0023012206
:103AA00011464120FFF7DAFE00231A460221412089
:103AB000FFF7D4FE12E00023012219464120FFF750
:103AC000CDFE0023012211464120FFF7C7FE00234F
:103AD000012202214120FFF7C1FE00BF00BF00BF4D
:103AE0000AF1010A039801F0F8FB50453FF71DAFBA
:103AF0004FF47A70FEF72FFE00260025B8F1000F74
:103B00007ED00024A14671E0000801403C00002066
:103B10004000002001000020CAFDBEDDB4A6C0EDBB
:103B2000C7B02CB5C3B5BDB5C46573703832363671
:103B300064617461CEAA203A200A0000B4EDCEF38D
:103B4000CAFDBEDD3A0A00006C6F776572506F7770
:103B50006572546F00000000706F776572546F4E8D
:103B60006F64650068696768506F776572546F00AD
:103B70006E6F6465546F436865636B0049464046E9
:103B800001F0C8FB8246DAF80C0010282CD1DAF8D4
:103B900010000021002208E00378302B04DB0378BA
:103BA000392B01DC531CDAB2401C0378002BF3D113
:103BB000DAF81000022A0BD14378303B03EB830381
:103BC00001EB4303D9B28378303B0B44D9B203E015
:103BD0004378303B0B44D9B24B1E4FF0010C0CFA2A
:103BE00003F32343DCB200BF09F10109404601F0B1
:103BF00074FB4845C2DC264365EA0400C5B200E018
:103C000001E000BF00BF0298002843D00024A14675
:103C100037E04946029801F07DFB8246DAF80C0055
:103C200010282CD1DAF810000021002208E00378D7
:103C3000302B04DB0378392B01DC531CDAB2401C37
:103C40000378002BF3D1DAF81000022A0BD1437865
:103C5000303B03EB830301EB4303D9B28378303B62
:103C60000B44D9B203E04378303B0B44D9B24B1E2E
:103C70004FF0010C0CFA03F32343DCB200BF09F14F
:103C80000109029801F029FB4845C2DC264325437F
:103C9000EDB200BF0123324600214320FFF7DEFDD5
:103CA00001232A4600214420FFF7D8FD40F6B83012
:103CB000FEF751FD019898B34FF0000A45E05146D8
:103CC000019801F027FB8346DBF80C0010283AD15D
:103CD000DBF810404FF00009002000900AE0207847
:103CE000302806DB2078392803DC0098401CC0B25D
:103CF0000090641C20780028F1D1DBF81040009877
:103D000002280ED16078303800EB800009EB4000CB
:103D100000F0FF09A0783038484400F0FF0905E0C2
:103D200018E060783038484400F0FF09B9F1080F16
:103D300004DC00214846FFF70FFB03E00121484661
:103D4000FFF70AFB00BF0AF1010A019801F0C5FA6A
:103D50005045B4DC6420FEF7FEFC384600F01FF945
:103D600000BFACE510B50446102C61D2DFE804F0CA
:103D7000080D12171C21262B30363C42484E545A4F
:103D800001212C48FDF7EBF810BD02212948FDF771
:103D9000E6F8F9E704212748FDF7E1F8F4E7082100
:103DA0002448FDF7DCF8EFE710212248FDF7D7F8AB
:103DB000EAE720211F48FDF7D2F8E5E740211D483A
:103DC000FDF7CDF8E0E780211A48FDF7C8F8DBE7FA
:103DD0004FF480711748FDF7C2F8D5E74FF4007132
:103DE0001448FDF7BCF8CFE74FF480611148FDF7A8
:103DF000B6F8C9E74FF400610E48FDF7B0F8C3E725
:103E00004FF480510B48FDF7AAF8BDE74FF400517D
:103E10000848FDF7A4F8B7E74FF480410548FDF7DF
:103E20009EF8B1E74FF400410248FDF798F8ABE780
:103E30000220A9E700100140F8480068F7494968E6
:103E400008447047014609B900207047087B1028D4
:103E500001D10120F9E70020F7E700B5024610463E
:103E6000FFF7F0FF08B9002000BD1069FCE701462C
:103E700009B900207047087B082801D10120F9E723
:103E80000020F7E700B502461046FFF7F0FF10B933
:103E90000020E34900BDD2E90601FBE708B50F2089
:103EA00007230122DFA10090E14802F0EDF9E0488C
:103EB00008BD70B504460D4604B10DB9012070BDB2
:103EC000AC4201D10020FAE705E0207808B90020D3
:103ED000F5E7641C6D1C207802F0AAF906462878E4
:103EE00002F0A6F98642F0D0207802F0A1F9064649
:103EF000287802F09DF9301AE1E72DE9F0410446F7
:103F00000D460026002714B90020BDE8F0812046A8
:103F100002F0BEFB461C30462968884707460FB9A9
:103F20000020F2E732462146384602F01BFC3846B4
:103F3000EBE738B9BF49C04A1160C0495160C04978
:103F400091607047BB49BC4A1160016809B10168C2
:103F50001160BA49B84A5160416809B1416851607D
:103F60000021B54A916011460968B24A914207D1D1
:103F7000B1494968B14A914202D1B149AE4A916012
:103F800000BFDEE770B50446282021688847054653
:103F90001DB12821284602F07EFC284670BD70B570
:103FA0000446002522E02568A08900F4807020B92D
:103FB000A06810B1A068FFF7F2FFA08900F480703C
:103FC00028B9206918B19C4A206951688847A0899E
:103FD00000F4007028B9206A18B1974A206A516825
:103FE000884795484168204688472C46002CDAD1FE
:103FF00070BD2E2070472DE9F04391B080460C46ED
:1040000000BF00201090FFF7F4FF814600250CB19F
:10401000206818B9002011B0BDE8F08300253CE00D
:10402000A16820680844405D342820D00ADCA0F153
:104030002B0009282ED2DFE800F0202D212A2D1692
:1040400017181900382816D006DC352810D0362865
:104050000FD037281ED10DE039280DD045280FD0BC
:10406000652817D10BE000BF00BF00BF00BF00BF35
:1040700000BF00BF00BF00BF00BF00BF00BF00BF48
:10408000A16820680844405D0DF8050003E00DF8C4
:10409000059000E00AE000BF6D1C3F2D05D224B161
:1040A000A068284461688842BAD300BF00200DF898
:1040B000050010A9684604F08FFF06460F466846C3
:1040C0001099884201D10020A5E7C8E906675D4A3A
:1040D0005D4B3046394605F063FA04D86FF0004076
:1040E000C8F8140011E00022584B3046394605F05C
:1040F0001DF904D84FF00040C8F8140005E0304620
:10410000394605F0CDF8C8F814000820C8F80C00AE
:10411000A0686A461099891A0844A06001207AE7CD
:1041200070B5064614461D46464A474B204629466A
:1041300005F036FA03D86FF0004070610FE00022FE
:10414000424B2046294605F0F1F803D84FF00040D5
:10415000706104E02046294605F0A2F8706120460F
:104160002946C6E9064570BD10B504463248416887
:104170002046884710BD2DE9F04104460E46002533
:10418000207B00F0100018B1A08900F4807010B1FD
:104190000020BDE8F081304602F07AFA0746206937
:1041A00002F076FA874205D83146206902F04CFACF
:1041B0002069EEE720493046FFF79FFE05460DB91E
:1041C0000020E6E7206910B12069FFF7CDFF2561E7
:1041D0002846DEE72DE9F04104460D46002600277B
:1041E0000CB1206810B90020BDE8F081606828B1EA
:1041F000D4E90110884201D30020F5E7B5F1004F62
:1042000001D30020F0E7A068401C05446068A84284
:104210001ED3A16820680844E6E70000440000209F
:104220000000F87F25692E25692E25690000000011
:10423000FE130020CD6000084C0000202B61000818
:10424000796100080000C0FFFFFFDF410000E0C10E
:10425000206908B10020C7E7B5F1804F07D3B5F159
:10426000004F02D26FF0004702E00020BCE76F0071
:10427000206A60B13946226A206890470646DEB956
:10428000E16920688847002060602060ACE738461C
:10429000A1698847064636B9E16920688847002049
:1042A00060602060A0E7A068421C3046216802F0F0
:1042B00059FAE1692068884767602660A068304441
:1042C00092E770B5044600250CB1206800B970BDB6
:1042D000A16820684518284602F0DAF9A168084468
:1042E000A06000BFF3E72DE9FC5F04460D461646CB
:1042F0001F4627F00043B24625F000405246CDE964
:1043000000402046019905F04BF903D225F0004109
:10431000204602E027F000413046804689460022D0
:10432000F84B4046494605F03DF882468B463246FA
:104330003B462046294605F069F921F000415246E6
:104340005B46CDE9000104F0F1FF02D80120BDE891
:10435000FC9F0020FBE72DE9F04F8BB081460F4614
:104360004FF0000AD9E90645D04600261C2104A8D2
:1043700002F091FAFFF73DFE834600200290039081
:1043800017B90BB0BDE8F08FCDE90045DDE900219C
:104390000AB1012200E0002241EA020020F00041BF
:1043A000D94A511AC90F61B9CDE9004551000198A8
:1043B000B1EB400F03D1009808B9012000E00020C4
:1043C00028B1D2A104A801F05FFF80462EE0D9F801
:1043D000140004F094FF22462B46CDE9000104F0BE
:1043E00023FF07D1CBA104A8D9F8142001F04CFF7A
:1043F00080461BE022462B46C7A104A801F044FFDB
:10440000804602AAC6A104A802F0EEF8012806D14F
:1044100022462B46DDE90201FFF765FF30B922464F
:104420002B46C0A104A801F02FFF8046B8F1000F71
:1044300002DBB8F1190F01DD0020A2E708F101014C
:104440003846FFF7C7FE8246BAF1000F01D10020BF
:1044500097E700260DE004A8805D584503D12E2083
:104460000AF8060004E004A8805D0AF8060000BF10
:10447000761C4645EFD300200AF80600B868404491
:10448000B86001207DE702460023002100BF23E041
:10449000505C302806DB505C392803DC505C303837
:1044A000034415E0505C412806DB505C462803DCE1
:1044B000505C373803440BE0505C612806DB505CED
:1044C000662803DC505C5738034401E00020704745
:1044D000032900D21B01491C0429D9D31846F6E749
:1044E0002DE9FF5F80468946154600240026C24616
:1044F00000200390834602900190A9EB0A00062851
:1045000000DA81E00AF10200FFF7BDFF0646B6F5CA
:104510005C4F03D3B6F5604F00D275E0B6F5584F47
:1045200029D3B6F55C4F26D20AF106070020009089
:104530000C200290A9EB0700062800DA64E0387826
:104540005C2802D17878752800D05DE0B81CFFF7B0
:104550009AFF00900098B0F55C4F03D30098B0F537
:10456000604F00D350E0C6F30901009861F39F202B
:1045700000F5803402E0062002903446802C02D2FE
:104580000120039018E0B4F5006F04D202200390DC
:10459000C020019010E0B4F5803F04D203200390C6
:1045A000E020019008E0B4F5881F04D204200390B5
:1045B000F020019000E027E00398401E00F0FF0B80
:1045C0000BE004F0BF0040F08000296801F80B0008
:1045D000A409ABF1010000F0FF0BBBF1000FF0DC10
:1045E0000398012804DD019820432968087003E03E
:1045F00004F07F002968087029680398084428603F
:10460000029804B0BDE8F09F0020FAE72DE9F84FCA
:1046100080460C46A16820680844461CA1682068B2
:104620000844451C002000900027A1682068405CD9
:10463000222800D0BAE04FF0000AD1460DE02878D9
:104640005C2809D1681C2168401A6168884200D33F
:10465000ACE009F101096D1C6D1C2068281A616825
:10466000884202D228782228E9D12068281A616875
:10467000884202D22878222800D097E0A1682068DA
:104680000844281AA0EB090A0AF1010021698847A9
:10469000074607B98AE0009775E030785C2807D0B4
:1046A00016F8010B009908700098401C00906AE011
:1046B0004FF00209A81B012800DA77E0707866281D
:1046C00019D008DC222846D02F2846D05C2843D0B9
:1046D000622854D108E06E2828D072282DD0742882
:1046E00032D075284BD13FE008200099087000981F
:1046F000401C009044E00C20009908700098401C79
:1047000000903DE00000B03C0000F07F6E756C6CE6
:10471000000000002564000025312E3135670000BF
:10472000256C670025312E31376700000A2000997B
:1047300008700098401C009022E00D20009908703D
:104740000098401C00901BE0092000990870009818
:10475000401C009014E000BF00BF70780099087002
:104760000098401C00900BE06A4629463046FFF74F
:10477000B7FE8146B9F1000F00D117E000E015E067
:1047800000BF4E4400BFAE4287D30020009908709E
:104790001020C8F80C00C8F810702068281AA06013
:1047A000A068401CA0600120BDE8F88F17B1384612
:1047B0006169884716B12068301AA0600020F3E7CD
:1047C0002DE9F04707468A46002400260025A0462A
:1047D000A146BAF1000F02D10020BDE8F0876FB901
:1047E00003215046FFF7F6FC06460EB90020F4E719
:1047F000FCA1304601F028FF0120EEE73C4622E014
:1048000020780C2811D006DC08280DD009280FD0FC
:104810000A2810D10AE00D2809D0222802D05C28ED
:1048200009D100E000BF00BF00BF00BF00BF00BF54
:1048300009F1010905E02078202801DA09F10509CC
:1048400000BF00BF641C20780028D9D1E01B00EB1A
:10485000090808F103015046FFF7BCFC06460EB9F3
:104860000020BAE7B9F1000F0FD122203070424684
:104870003946701C01F076FF222108F10100315405
:104880000021401C31540120A7E722203070751C04
:104890003C463DE020781F2808DD2078222805D0FE
:1048A00020785C2802D0207828702FE05C2005F862
:1048B000010B20780C2815D006DC08280FD0092819
:1048C00019D00A281AD110E00D2811D0222803D0BF
:1048D0005C2813D1287018E02220287015E062208F
:1048E000287012E0662028700FE06E2028700CE01F
:1048F0007220287009E07420287006E02278BAA19E
:10490000284601F0C1FC2D1D00BF00BF641C6D1CBA
:1049100020780028BED1222108F101003154002165
:10492000401C3154012058E770B504460D46294615
:104930002069FFF745FF70BD014609B1086808B955
:104940000020704719B1D1E90120904201D30846F7
:10495000F7E702E08868401C886041B1D1E9012096
:10496000904204D28A680868805C2028F2DDD1E990
:104970000120904202D18868401E88600846E0E726
:1049800010B504461CB1206808B1A06808B1002029
:1049900010BD7CB1A068001D616888420AD2A2687F
:1049A00021688818032292A101F091FE10B9A06835
:1049B000C01CA0602046EBE72DE9F04180460C4684
:1049C00000260025E068B0F57A7F02D30020BDE81C
:1049D000F081E068401CE06044B1D4E901108842F5
:1049E00004D2A1682068405C7B2800D07DE0A068EC
:1049F000401CA0602046FFF79FFF4CB1D4E9011096
:104A0000884205D2A1682068405C7D2800D15DE025
:104A10001CB1D4E90110884203D3A068401EA060F5
:104A200063E0A068401EA06000BF04F11000FFF723
:104A3000A9FA074607B958E016B93E463D4602E0D6
:104A40002F607D603D46A068401CA0602046FFF7B7
:104A500073FF21462846FFF7D9FD00B945E02046FF
:104A6000FFF76AFF286928620020286144B1D4E971
:104A70000110884204D2A1682068405C3A2800D026
:104A800033E0A068401CA0602046FFF755FF214698
:104A9000284600F0B5F800B927E02046FFF74CFFA4
:104AA00044B1D4E90110884204D2A1682068405C76
:104AB0002C28BAD044B1D4E90110884204D2A168AC
:104AC0002068405C7D2800D00FE000BFE068401EF9
:104AD000E06006B175604020C8F80C00C8F80860B6
:104AE000A068401CA060012071E716B13046FFF7B6
:104AF00056FA00206BE72DE9F04180460C46002570
:104B00000027E068B0F57A7F02D30020BDE8F0818D
:104B1000E068401CE060A1682068405C5B2800D031
:104B200068E0A068401CA0602046FFF705FF4CB17C
:104B3000D4E90110884205D2A1682068405C5D2854
:104B400000D13FE01CB1D4E90110884203D3A06832
:104B5000401EA0604EE0A068401EA06000BF04F1AF
:104B60001000FFF70FFA064606B943E015B93546BF
:104B7000374602E03E6077603746A068401CA06080
:104B80002046FFF7D9FE2146384600F039F800B933
:104B900030E02046FFF7D0FE44B1D4E9011088424E
:104BA00004D2A1682068405C2C28D8D044B1D4E954
:104BB0000110884204D2A1682068405C5D2800D0C2
:104BC00018E000BFE068401EE06005B16F60202083
:104BD000C8F80C00C8F80850A068401CA06001206C
:104BE00094E7000022220000752530347800000090
:104BF000EFBBBF0015B12846FFF7D1F9002085E7CC
:104C000070B505460C460CB1206808B9002070BD8F
:104C1000A4B1A068001D616888420FD8A26821680D
:104C200088180422AFF21C5101F051FD30B9042064
:104C3000E860A068001DA0600120E8E79CB1A068C2
:104C4000401D616888420ED8A26821688818052234
:104C5000FEA101F03CFD30B90120E860A068401DD4
:104C6000A0600120D3E7ACB1A068001D6168884254
:104C700010D8A268216888180422F6A101F027FD47
:104C800040B90220E86001206861A068001DA060B2
:104C90000120BCE76CB1D4E90110884209D2A168B7
:104CA0002068405C222804D121462846FFF7AEFC4C
:104CB000ADE7BCB1D4E90110884213D2A1682068E5
:104CC000405C2D2809D0A1682068405C302809DBB1
:104CD000A1682068405C392804DC21462846FFF79B
:104CE0008AF994E76CB1D4E90110884209D2A1682D
:104CF0002068405C5B2804D121462846FFF7FBFE74
:104D000085E76CB1D4E90110884209D2A168206816
:104D1000405C7B2804D121462846FFF74DFE76E70C
:104D2000002074E72DE9F0478AB004460E46154688
:104D300098461C2103A801F0AEFD00270020C749BA
:104D40000860486004B106B932E00394049600207C
:104D50000590C34A07CA07AB07C3C148FFF712F95A
:104D6000074607B924E003A8FFF70AFE8246FFF7CB
:104D7000E3FD814649463846FFF742FF00B917E098
:104D8000B8F1000F0BD003A8FFF7D6FDDDE9041042
:104D9000884203D205990398405C00B108E01DB138
:104DA000059903980844286038460AB0BDE8F087A2
:104DB00017B13846FFF7F3F8C4B101940020029010
:104DC000DDE90410884202D20598029004E00498BC
:104DD00010B10498401E02901DB1DDE901010844A4
:104DE00028609E48DDE9011206C000BF0020DCE714
:104DF0002DE9F04104460D46164614B90020BDE8E1
:104E0000F081204601F044FC471C33462A463946CF
:104E10002046FFF787FFF2E710B50446002211464F
:104E20002046FFF7E5FF10BD70B504460D46002390
:104E30001A4629462046FFF775FF70BD2DE9F04759
:104E400081460C4600250026D9F8087014B90020C8
:104E5000BDE8F087606908B1022000E00120064645
:104E6000711C2046FFF7B6F905460DB90020EFE7A3
:104E70007B2005F8010BE068401CE060606910B120
:104E80000A2005F8010BA0683044A06069E0606961
:104E9000B8B12046E168FFF79DF905460DB900203D
:104EA000D6E74FF0000804E0092005F8010B08F1EF
:104EB0000108E0684045F7D8D4E902010844A06041
:104EC00000BF2146386AFFF77BFC08B90020BFE726
:104ED0002046FFF7F6F9606908B1022000E00120E2
:104EE000064631462046FFF775F905460DB9002004
:104EF000AEE73A2005F8010B606910B1092005F80A
:104F0000010BA0683044A0602146384600F0B6F896
:104F100008B900209CE72046FFF7D3F9606908B183
:104F2000012000E00020396809B1012100E00021E2
:104F30004618711C2046FFF74DF905460DB90020B3
:104F400086E7386810B12C2005F8010B606910B1B4
:104F50000A2005F8010B00202870A0683044A060EA
:104F60003F68002F93D1606910B1E068401C00E0F9
:104F7000022001462046FFF72DF905460DB9002015
:104F800066E7606950B1002003E0092105F8011BC4
:104F9000401CE168491E8142F7D800BF7D2005F81A
:104FA000010B00202870E068401EE06001204FE700
:104FB0002DE9F04107460C460025A846BE6814B905
:104FC0000020BDE8F08101212046FFF703F90546E6
:104FD0000DB90020F5E75B202870A068401CA06098
:104FE000E068401CE06028E02146304600F046F8CA
:104FF00008B90020E5E72046FFF763F93068D8B12B
:10500000606908B1022000E00120804608F101013A
:105010002046FFF7DFF805460DB90020D1E72C2028
:1050200005F8010B606910B1202005F8010B002084
:105030002870A0684044A0603668002ED4D10221B8
:105040002046FFF7C7F8054675B90BE066616C733B
:1050500065000000747275650000000044000020C7
:105060004C0000200020ACE75D2005F8010B00207B
:105070002870E068401EE0600120A2E72DE9F041C1
:1050800004460E46002504B116B90020BDE8F081A3
:10509000207B10285AD008DC01281CD0022829D0F7
:1050A000042809D0082860D133E0202853D04028B4
:1050B00056D0802859D131E005213046FFF78AF8D3
:1050C00005460DB90020E1E7AFF6C011284601F012
:1050D000BBFA0120DAE706213046FFF77BF80546E8
:1050E0000DB90020D2E7AFF29C01284601F0ACFADE
:1050F0000120CBE705213046FFF76CF805460DB9D6
:105100000020C3E7AFF2B401284601F09DFA012068
:10511000BCE731462046FFF71EF9B7E700272069B4
:1051200008B90020B2E7206901F0B2FA471C3946FD
:105130003046FFF74FF805460DB90020A6E73A467E
:105140002846216901F00EFB01209FE731462046E9
:10515000FFF7EAFB9AE731462046FFF729FF95E77C
:1051600031462046FFF76AFE90E700208EE7F0B553
:1051700089B007460E46144600252421684601F0F2
:105180008AFB4FF480702168884700904FF480704C
:105190000190059694E8070006AB07C3009800B994
:1051A00033E069463846FFF769FF00B92DE06846ED
:1051B000FFF787F8A06850B1029B591C0098A268BD
:1051C0009047054605B920E0002000901AE0029AB9
:1051D000501C21688847054605B916E0DDE9013015
:1051E000401C834201D2019801E00298401C024613
:1051F0002846009901F0B6FA0020029968540098F8
:1052000061688847284609B0F0BD009810B1009841
:105210006168884715B12846616888470020F2E731
:1052200010B50446FB4A01212046FFF7A0FF10BD40
:1052300010B50446F74A00212046FFF798FF10BD3D
:1052400070B58AB006460C461546242101A801F027
:1052500022FB002C02DA00200AB070BDED48016884
:10526000204688470190019808B90020F4E702948D
:105270000020039005900695E64A07CA07AB07C3CE
:1052800001A93046FFF7FAFE28B9E24A01985168B1
:1052900088470020E0E70198DEE7F0B589B00746CF
:1052A0000C4615461E462421684601F0F4FA002DEE
:1052B00000DB14B9002009B0F0BD00940195002076
:1052C0000290012004900596D24A07CA06AB07C394
:1052D00069463846FFF7D2FEEDE70146002200237B
:1052E00009B9002070478A6801E05B1C1268002A37
:1052F000FBD11846F6E702460B4600210AB900200A
:105300007047916801E05B1E096809B1002BFAD172
:105310000846F5E770B505460C46002C01DA00207A
:1053200070BD21462846FFF7E6FFF9E72DE9F04179
:1053300005460E461746002405B116B90020BDE803
:10534000F081AC685FB100E024688CB1206A78B16C
:105350003046216A01F0C6FA0028F5D108E000E0E5
:1053600024682CB13046216AFEF7A3FD0028F7D14E
:105370000CB1206A08B90020E1E72046DFE770B5EC
:1053800004460D46002229462046FFF7CFFF70BD98
:1053900070B504460D46012229462046FFF7C6FF98
:1053A00070BD70B504460D4629462046FFF7E7FF5D
:1053B00008B1012070BD0020FCE701604860704723
:1053C00070B505460E4600240DB9002070BD30466C
:1053D000FEF7D8FD04460CB90020F7E7282229463D
:1053E000204601F004FA00202062E06840F480705A
:1053F000E0600020606020602046E7E770B5054669
:105400000C46002614B10DB1A54201D1002070BD9B
:10541000AE6826B9AC6064600020206007E0706868
:1054200028B121467068FFF7C8FFA86844600120D2
:10543000EDE770B504460D4629462046FFF7DEFF2E
:1054400070BD70472DE9F04705460E4614461F46CD
:10545000DDF820904FF00008C2461DB116B10CB126
:10546000A54202D10020BDE8F087B9F1000F07D0B6
:105470003046FFF7E6FF8046E06840F4007A0CE033
:1054800039463046FEF739FD8046B8F1000F01D1AC
:105490000020E8E7E06820F4007AA08900F40070BA
:1054A00020B9206A10B1206A79688847C4F8208042
:1054B000C4F80CA021462846FFF7A0FFD3E7F8B5B3
:1054C00004460D4616460020524B324629460090AF
:1054D0002046FFF7B7FFF8BDF8B504460D4616465F
:1054E00001204C4B3246294600902046FFF7AAFF88
:1054F000F8BD70B504460D460CB9002070BD454995
:105500002846FFF75DFF064631462046FFF776FF47
:10551000F4E7F8B504460D46164604B10DB900206F
:10552000F8BD3C493046FFF74BFF07460020394B9A
:105530003A46294600902046FFF784FFF0E710B571
:105540003448FEF71FFD04460CB10420E0602046FD
:1055500010BDF8B504460D46FFF7F1FF06460020E2
:105560002C4B3246294600902046FFF76BFF08B1CE
:105570003046F8BD3046FEF712FD0020F9E710B5C1
:105580002448FEF7FFFC04460CB10220E0602046F0
:1055900010BDF8B504460D46FFF7F1FF06460020A2
:1055A0001C4B3246294600902046FFF74BFF08B1BE
:1055B0003046F8BD3046FEF7F2FC0020F9E710B5A2
:1055C0001448FEF7DFFC04460CB10120E0602046E1
:1055D00010BDF8B504460D46FFF7F1FF0646002062
:1055E0000C4B3246294600902046FFF72BFF08B1AE
:1055F0003046F8BD3046FEF7D2FC0020F9E770B522
:1056000005460448FEF7BEFC04463CB125B1022025
:1056100003E000004C0000200120E060204670BD47
:10562000F8B505460E4614462046FFF7E8FF074644
:105630000020F94B3A46314600902846FFF702FF1A
:1056400008B13846F8BD3846FEF7A9FC0020F9E756
:1056500070B505460E46F048FEF794FC0446F4B1DA
:105660000820E060C4E90656EC4AED4B2846314676
:1056700003F096FF03D86FF0004060610FE0002256
:10568000E84B2846314603F051FE03D84FF0004066
:10569000606104E02846314603F002FE6061204666
:1056A00070BD2DE9F84306460F4614461D462046B8
:1056B0002946FFF7CDFF80460020D74B42463946AA
:1056C00000903046FFF7BEFE10B14046BDE8F883BB
:1056D0004046FEF764FC0020F8E770B50546CE486A
:1056E000FEF750FC04466CB11020E060CA49284621
:1056F000FEF703FC2061206920B92046FEF74FFC2D
:10570000002070BD2046FCE7F8B505460E4614465D
:105710002046FFF7E2FF07460020BF4B3A463146DE
:1057200000902846FFF78EFE08B13846F8BD38468F
:10573000FEF735FC0020F9E770B50546B648FEF7E0
:1057400021FC04466CB18020E060B3492846FEF796
:10575000D4FB2061206920B92046FEF720FC002000
:1057600070BD2046FCE7F8B505460E4614462046B7
:10577000FFF7E2FF07460020A74B3A46314600906C
:105780002846FFF75FFE08B13846F8BD3846FEF7F9
:1057900006FC0020F9E710B59F48FEF7F3FB04462E
:1057A0000CB14020E060204610BDF8B504460D461F
:1057B000FFF7F1FF06460020974B3246294600903E
:1057C0002046FFF73FFE08B13046F8BD3046FEF7F1
:1057D000E6FB0020F9E710B58F48FEF7D3FB04463F
:1057E0000CB12020E060204610BDF8B504460D46FF
:1057F000FFF7F1FF06460020874B3246294600900E
:105800002046FFF71FFE08B13046F8BD3046FEF7D0
:10581000C6FB0020F9E7024602B109B90020704733
:105820009068884202D0D1E900031860086810B17E
:10583000D1E9003058609068884202D108689060D1
:1058400004E0086810B94868936858600020486010
:1058500008600846E3E770B505460C46002C01DAFF
:10586000002070BD21462846FFF745FD064631461B
:105870002846FFF7D0FFF4E770B504460D462946E9
:105880002046FFF7E8FF0646FEF789FB70BD70B5BE
:1058900004460D4629462046FFF771FD064631466F
:1058A0002046FFF7B8FF70BD70B504460D46294687
:1058B0002046FFF76DFD064631462046FFF7ABFF59
:1058C00070BD70B504460D4629462046FFF7DFFF40
:1058D0000646FEF764FB70BD70B504460D462946CA
:1058E0002046FFF7E1FF0646FEF759FB70BD2DE9A4
:1058F000F04106460F4614460025002F02DA00202C
:10590000BDE8F08139463046FFF7F5FC054625B97C
:1059100021463046FFF772FDF2E725606868606057
:105920006C60B068A84201D1B46001E060680460B6
:105930000120E5E770B506460D4614460EB104B1E8
:105940000DB9002070BDAC4201D10120FAE72868F2
:10595000206068686060206808B120684460B068B2
:10596000A84207D1B0684068B168884200D164603D
:10597000B46007E0606808B160680460206808B936
:10598000B06844600020286068602846FEF707FB86
:105990000120D7E72DE9F04105460C461646002CBC
:1059A00002DA0020BDE8F08121462846FFF7A3FC7B
:1059B0000746324639462846FFF7BCFFF2E72DE995
:1059C000F04107460D4614461E4604B115B90020A5
:1059D000BDE8F081A08900F4007020B9206A10B100
:1059E000206AFEF7C1FB0C492846FEF786FA2062C2
:1059F000206A08B90020EBE7E06820F40070E0605E
:105A0000324629463846FFF791FC804622464146F9
:105A10003846FFF78FFFDBE74C0000200000C0FF97
:105A2000FFFFDF410000E0C170B504460D46164699
:105A30000023324629462046FFF7C1FF70BD70B5EE
:105A400004460D4616460123324629462046FFF7F6
:105A5000B6FF70BD70B50546F848FEF793FA0446E8
:105A600034B14FF48870E0602846FFF7EAFC20610B
:105A7000204670BD70B50546F048FEF783FA04462F
:105A800034B14FF4A070E0602846FFF7DAFCA06064
:105A9000204670BD70B50546E848FEF773FA044627
:105AA00034B14FF49070E0602846FFF7CAFCA06064
:105AB000204670BD2DE9F05F81468A46002600250C
:105AC000AB460024BAF1000F02DBB9F1000F02D19E
:105AD0000020BDE8F09FFFF77EFE0446002616E09A
